{
  "_format": "hh-sol-artifact-1",
  "contractName": "FraudRegistry",
  "sourceName": "contracts/FraudRegistry.sol",
  "abi": [
    {
      "anonymous": false,
      "inputs": [
        {
          "indexed": true,
          "internalType": "string",
          "name": "identifier",
          "type": "string"
        },
        {
          "indexed": false,
          "internalType": "string",
          "name": "fraudType",
          "type": "string"
        },
        {
          "indexed": false,
          "internalType": "uint256",
          "name": "reportCount",
          "type": "uint256"
        },
        {
          "indexed": false,
          "internalType": "address",
          "name": "reporter",
          "type": "address"
        }
      ],
      "name": "FraudReported",
      "type": "event"
    },
    {
      "inputs": [
        {
          "internalType": "bytes32",
          "name": "",
          "type": "bytes32"
        }
      ],
      "name": "fraudURLs",
      "outputs": [
        {
          "internalType": "string",
          "name": "vpa",
          "type": "string"
        },
        {
          "internalType": "bytes32",
          "name": "urlHash",
          "type": "bytes32"
        },
        {
          "internalType": "uint256",
          "name": "reporterCount",
          "type": "uint256"
        },
        {
          "internalType": "uint256",
          "name": "firstReported",
          "type": "uint256"
        },
        {
          "internalType": "uint256",
          "name": "lastReported",
          "type": "uint256"
        }
      ],
      "stateMutability": "view",
      "type": "function"
    },
    {
      "inputs": [
        {
          "internalType": "string",
          "name": "",
          "type": "string"
        }
      ],
      "name": "fraudVPAs",
      "outputs": [
        {
          "internalType": "string",
          "name": "vpa",
          "type": "string"
        },
        {
          "internalType": "bytes32",
          "name": "urlHash",
          "type": "bytes32"
        },
        {
          "internalType": "uint256",
          "name": "reporterCount",
          "type": "uint256"
        },
        {
          "internalType": "uint256",
          "name": "firstReported",
          "type": "uint256"
        },
        {
          "internalType": "uint256",
          "name": "lastReported",
          "type": "uint256"
        }
      ],
      "stateMutability": "view",
      "type": "function"
    },
    {
      "inputs": [
        {
          "internalType": "string",
          "name": "vpa",
          "type": "string"
        }
      ],
      "name": "getFraudScore",
      "outputs": [
        {
          "internalType": "uint256",
          "name": "",
          "type": "uint256"
        }
      ],
      "stateMutability": "view",
      "type": "function"
    },
    {
      "inputs": [
        {
          "internalType": "address",
          "name": "",
          "type": "address"
        },
        {
          "internalType": "string",
          "name": "",
          "type": "string"
        }
      ],
      "name": "hasReported",
      "outputs": [
        {
          "internalType": "bool",
          "name": "",
          "type": "bool"
        }
      ],
      "stateMutability": "view",
      "type": "function"
    },
    {
      "inputs": [
        {
          "internalType": "string",
          "name": "vpa",
          "type": "string"
        }
      ],
      "name": "isHighRisk",
      "outputs": [
        {
          "internalType": "bool",
          "name": "",
          "type": "bool"
        }
      ],
      "stateMutability": "view",
      "type": "function"
    },
    {
      "inputs": [
        {
          "internalType": "string",
          "name": "url",
          "type": "string"
        }
      ],
      "name": "reportFraudURL",
      "outputs": [],
      "stateMutability": "nonpayable",
      "type": "function"
    },
    {
      "inputs": [
        {
          "internalType": "string",
          "name": "vpa",
          "type": "string"
        }
      ],
      "name": "reportFraudVPA",
      "outputs": [],
      "stateMutability": "nonpayable",
      "type": "function"
    }
  ],
  "bytecode": "0x608060405234801561001057600080fd5b50611431806100206000396000f3fe608060405234801561001057600080fd5b506004361061007c5760003560e01c80632b43ffca1161005b5780632b43ffca146100fd578063448716fa14610131578063e2b12b6614610165578063fd88aa41146101815761007c565b806261c2f014610081578063114d4bf21461009d57806329066713146100cd575b600080fd5b61009b60048036038101906100969190610a27565b6101b1565b005b6100b760048036038101906100b29190610a27565b6103db565b6040516100c49190610a8b565b60405180910390f35b6100e760048036038101906100e29190610a27565b61040a565b6040516100f49190610abf565b60405180910390f35b61011760048036038101906101129190610a27565b610434565b604051610128959493929190610b72565b60405180910390f35b61014b60048036038101906101469190610bf8565b610508565b60405161015c959493929190610b72565b60405180910390f35b61017f600480360381019061017a9190610a27565b6105c6565b005b61019b60048036038101906101969190610c83565b6107e6565b6040516101a89190610a8b565b60405180910390f35b6101ba8161082b565b6101f9576040517f08c379a00000000000000000000000000000000000000000000000000000000081526004016101f090610d51565b60405180910390fd5b600260003373ffffffffffffffffffffffffffffffffffffffff1673ffffffffffffffffffffffffffffffffffffffff168152602001908152602001600020816040516102469190610dad565b908152602001604051809103902060009054906101000a900460ff16156102a2576040517f08c379a000000000000000000000000000000000000000000000000000000000815260040161029990610e36565b60405180910390fd5b6001600260003373ffffffffffffffffffffffffffffffffffffffff1673ffffffffffffffffffffffffffffffffffffffff168152602001908152602001600020826040516102f19190610dad565b908152602001604051809103902060006101000a81548160ff021916908315150217905550600080826040516103279190610dad565b90815260200160405180910390209050600081600201540361035f57818160000190816103549190611062565b504281600301819055505b60018160020160008282546103749190611163565b92505081905550428160040181905550816040516103929190610dad565b60405180910390207fc25e7a99c664820dd5bc0f5f37d2a33f2b482bd83d2bf1a37dc505fba16c8d1f8260020154336040516103cf9291906111f2565b60405180910390a25050565b600060036000836040516103ef9190610dad565b90815260200160405180910390206002015410159050919050565b6000808260405161041b9190610dad565b9081526020016040518091039020600201549050919050565b60008180516020810182018051848252602083016020850120818352809550505050505060009150905080600001805461046d90610e85565b80601f016020809104026020016040519081016040528092919081815260200182805461049990610e85565b80156104e65780601f106104bb576101008083540402835291602001916104e6565b820191906000526020600020905b8154815290600101906020018083116104c957829003601f168201915b5050505050908060010154908060020154908060030154908060040154905085565b600160205280600052604060002060009150905080600001805461052b90610e85565b80601f016020809104026020016040519081016040528092919081815260200182805461055790610e85565b80156105a45780601f10610579576101008083540402835291602001916105a4565b820191906000526020600020905b81548152906001019060200180831161058757829003601f168201915b5050505050908060010154908060020154908060030154908060040154905085565b6000816040516020016105d99190610dad565b604051602081830303815290604052805190602001209050600081604051602001610604919061124f565b6040516020818303038152906040529050600260003373ffffffffffffffffffffffffffffffffffffffff1673ffffffffffffffffffffffffffffffffffffffff168152602001908152602001600020816040516106629190610dad565b908152602001604051809103902060009054906101000a900460ff16156106be576040517f08c379a00000000000000000000000000000000000000000000000000000000081526004016106b5906112dc565b60405180910390fd5b6001600260003373ffffffffffffffffffffffffffffffffffffffff1673ffffffffffffffffffffffffffffffffffffffff1681526020019081526020016000208260405161070d9190610dad565b908152602001604051809103902060006101000a81548160ff02191690831515021790555060006001600084815260200190815260200160002090506000816002015403610768578281600101819055504281600301819055505b600181600201600082825461077d9190611163565b925050819055504281600401819055508360405161079b9190610dad565b60405180910390207fc25e7a99c664820dd5bc0f5f37d2a33f2b482bd83d2bf1a37dc505fba16c8d1f8260020154336040516107d8929190611348565b60405180910390a250505050565b6002602052816000526040600020818051602081018201805184825260208301602085012081835280955050505050506000915091509054906101000a900460ff1681565b60008082905060005b81518110156108c1577f400000000000000000000000000000000000000000000000000000000000000082828151811061087157610870611384565b5b602001015160f81c60f81b7effffffffffffffffffffffffffffffffffffffffffffffffffffffffffffff1916036108ae576001925050506108c8565b80806108b9906113b3565b915050610834565b5060009150505b919050565b6000604051905090565b600080fd5b600080fd5b600080fd5b600080fd5b6000601f19601f8301169050919050565b7f4e487b7100000000000000000000000000000000000000000000000000000000600052604160045260246000fd5b610934826108eb565b810181811067ffffffffffffffff82111715610953576109526108fc565b5b80604052505050565b60006109666108cd565b9050610972828261092b565b919050565b600067ffffffffffffffff821115610992576109916108fc565b5b61099b826108eb565b9050602081019050919050565b82818337600083830152505050565b60006109ca6109c584610977565b61095c565b9050828152602081018484840111156109e6576109e56108e6565b5b6109f18482856109a8565b509392505050565b600082601f830112610a0e57610a0d6108e1565b5b8135610a1e8482602086016109b7565b91505092915050565b600060208284031215610a3d57610a3c6108d7565b5b600082013567ffffffffffffffff811115610a5b57610a5a6108dc565b5b610a67848285016109f9565b91505092915050565b60008115159050919050565b610a8581610a70565b82525050565b6000602082019050610aa06000830184610a7c565b92915050565b6000819050919050565b610ab981610aa6565b82525050565b6000602082019050610ad46000830184610ab0565b92915050565b600081519050919050565b600082825260208201905092915050565b60005b83811015610b14578082015181840152602081019050610af9565b60008484015250505050565b6000610b2b82610ada565b610b358185610ae5565b9350610b45818560208601610af6565b610b4e816108eb565b840191505092915050565b6000819050919050565b610b6c81610b59565b82525050565b600060a0820190508181036000830152610b8c8188610b20565b9050610b9b6020830187610b63565b610ba86040830186610ab0565b610bb56060830185610ab0565b610bc26080830184610ab0565b9695505050505050565b610bd581610b59565b8114610be057600080fd5b50565b600081359050610bf281610bcc565b92915050565b600060208284031215610c0e57610c0d6108d7565b5b6000610c1c84828501610be3565b91505092915050565b600073ffffffffffffffffffffffffffffffffffffffff82169050919050565b6000610c5082610c25565b9050919050565b610c6081610c45565b8114610c6b57600080fd5b50565b600081359050610c7d81610c57565b92915050565b60008060408385031215610c9a57610c996108d7565b5b6000610ca885828601610c6e565b925050602083013567ffffffffffffffff811115610cc957610cc86108dc565b5b610cd5858286016109f9565b9150509250929050565b7f496e76616c69642056504120666f726d61743a204d75737420636f6e7461696e60008201527f2027402700000000000000000000000000000000000000000000000000000000602082015250565b6000610d3b602483610ae5565b9150610d4682610cdf565b604082019050919050565b60006020820190508181036000830152610d6a81610d2e565b9050919050565b600081905092915050565b6000610d8782610ada565b610d918185610d71565b9350610da1818560208601610af6565b80840191505092915050565b6000610db98284610d7c565b915081905092915050565b7f416464726573732068617320616c7265616479207265706f727465642074686960008201527f7320565041000000000000000000000000000000000000000000000000000000602082015250565b6000610e20602583610ae5565b9150610e2b82610dc4565b604082019050919050565b60006020820190508181036000830152610e4f81610e13565b9050919050565b7f4e487b7100000000000000000000000000000000000000000000000000000000600052602260045260246000fd5b60006002820490506001821680610e9d57607f821691505b602082108103610eb057610eaf610e56565b5b50919050565b60008190508160005260206000209050919050565b60006020601f8301049050919050565b600082821b905092915050565b600060088302610f187fffffffffffffffffffffffffffffffffffffffffffffffffffffffffffffffff82610edb565b610f228683610edb565b95508019841693508086168417925050509392505050565b6000819050919050565b6000610f5f610f5a610f5584610aa6565b610f3a565b610aa6565b9050919050565b6000819050919050565b610f7983610f44565b610f8d610f8582610f66565b848454610ee8565b825550505050565b600090565b610fa2610f95565b610fad818484610f70565b505050565b5b81811015610fd157610fc6600082610f9a565b600181019050610fb3565b5050565b601f82111561101657610fe781610eb6565b610ff084610ecb565b81016020851015610fff578190505b61101361100b85610ecb565b830182610fb2565b50505b505050565b600082821c905092915050565b60006110396000198460080261101b565b1980831691505092915050565b60006110528383611028565b9150826002028217905092915050565b61106b82610ada565b67ffffffffffffffff811115611084576110836108fc565b5b61108e8254610e85565b611099828285610fd5565b600060209050601f8311600181146110cc57600084156110ba578287015190505b6110c48582611046565b86555061112c565b601f1984166110da86610eb6565b60005b82811015611102578489015182556001820191506020850194506020810190506110dd565b8683101561111f578489015161111b601f891682611028565b8355505b6001600288020188555050505b505050505050565b7f4e487b7100000000000000000000000000000000000000000000000000000000600052601160045260246000fd5b600061116e82610aa6565b915061117983610aa6565b925082820190508082111561119157611190611134565b5b92915050565b7f5650410000000000000000000000000000000000000000000000000000000000600082015250565b60006111cd600383610ae5565b91506111d882611197565b602082019050919050565b6111ec81610c45565b82525050565b6000606082019050818103600083015261120b816111c0565b905061121a6020830185610ab0565b61122760408301846111e3565b9392505050565b6000819050919050565b61124961124482610b59565b61122e565b82525050565b600061125b8284611238565b60208201915081905092915050565b7f416464726573732068617320616c7265616479207265706f727465642074686960008201527f732055524c000000000000000000000000000000000000000000000000000000602082015250565b60006112c6602583610ae5565b91506112d18261126a565b604082019050919050565b600060208201905081810360008301526112f5816112b9565b9050919050565b7f55524c0000000000000000000000000000000000000000000000000000000000600082015250565b6000611332600383610ae5565b915061133d826112fc565b602082019050919050565b6000606082019050818103600083015261136181611325565b90506113706020830185610ab0565b61137d60408301846111e3565b9392505050565b7f4e487b7100000000000000000000000000000000000000000000000000000000600052603260045260246000fd5b60006113be82610aa6565b91507fffffffffffffffffffffffffffffffffffffffffffffffffffffffffffffffff82036113f0576113ef611134565b5b60018201905091905056fea2646970667358221220fdc7da7b394ea9288df144c79b73c329f43543efabd66988330acd3c7ff90d0b64736f6c63430008130033",
  "linkReferences": {},
  "deployedLinkReferences": {}
}